:100000000C9462000C948A000C948A000C948A0070
:100010000C948A000C948A000C948A000C948A0038
:100020000C948A000C948A000C948A000C948A0028
:100030000C948A000C948A000C948A000C948A0018
:100040000C9497050C948A000C9481020C948A00FD
:100050000C948A000C948A000C948A000C948A00F8
:100060000C948A000C948A000000000024002700F1
:100070002A0000000000250028002B0000000000DE
:1000800023002600290004040404040404040202DA
:100090000202020203030303030301020408102007
:1000A0004080010204081020010204081020000012
:1000B0000007000201000003040600000000000029
:1000C00000007D0311241FBECFEFD8E0DEBFCDBFFF
:1000D00011E0A0E0B1E0EEEBF2E102C005900D927C
:1000E000AA39B107D9F714E0AAE9B1E001C01D921D
:1000F000A534B107E1F710E0C4ECD0E004C02297CA
:10010000FE010E945909C23CD107C9F70E94FC06B2
:100110000C945D090C940000AF92BF92CF92DF92D5
:10012000EF92FF920F931F93CF93DF936AE070E0FB
:1001300080E090E00E941306C0E0D0E010E081E093
:100140000E945F02C80FD91F1F5F1832C1F7E7EA8C
:10015000F1E0AA24BB24650181919191A0E0B0E077
:10016000A80EB91ECA1EDB1E83E0EB39F807A1F703
:10017000BE0180E090E00E9405087B018C01C60171
:10018000B5012AEF30E040E050E00E941A092F5FED
:100190003F4FB90180E090E00E9405089B01AC014F
:1001A000C801B7010E946C0720E030E048EC52E43F
:1001B0000E94B7080E94D9076B018091A00390911B
:1001C000A103A091A203B091A3030097A105B105DB
:1001D00019F10E94DF052091A0033091A103409105
:1001E000A2035091A3036217730784079507A0F039
:1001F0001092A0031092A1031092A2031092A303E5
:100200008091A403882341F089E294E060E071E0EA
:100210000E94FD041092A40380919E01882349F05E
:1002200010E080918001909181018C159D0550F422
:1002300008C010E08091820190918301C816D90610
:1002400008F011E020919D03222311F0112321F5E4
:1002500080919B0390919C03FC01EE0FFF1FE955D9
:10026000FE4FD183C083019690939C0380939B03A0
:100270008A3F910578F010929C0310929B032223F1
:1002800049F481E080939D0389E294E060E171E0AC
:100290000E94FD04112349F080919E0390919F03D9
:1002A000019690939F0380939E0380919E0118175F
:1002B00009F4E1C010939E018DE0612F0E94C706F2
:1002C00080919E018823B9F589E294E06FE171E0A5
:1002D0000E94EE030E94DF05AB01BC018091A301E7
:1002E0009091A401A091A501B091A601481B590BC2
:1002F0006A0B7B0B89E294E02AE030E00E949004D4
:1003000089E294E068E271E00E94EE0360919E034E
:1003100070919F0389E294E04AE050E00E949F04BC
:1003200089E294E06EE271E00E94FD0410929F0366
:1003300010929E03A0C00E94DF059B01AC0180913A
:10034000A3019091A401A091A501B091A60159012A
:100350006A01A81AB90ACA0ADB0A80919A01909127
:100360009B01A0919C01B0919D01A816B906CA06F7
:10037000DB0608F480C02093A3013093A4014093CE
:10038000A5015093A60180919F019091A001A09199
:10039000A101B091A2010196A11DB11D80939F0101
:1003A0009093A001A093A101B093A2010197A1098C
:1003B000B10929F489E294E069E371E05AC0C60109
:1003C000B5010E9405089B01AC0160E07AEB8BE56A
:1003D0009AE40E946C0720E030E04AE754E40E946F
:1003E000B7087B018C016091840170918501882799
:1003F00077FD8095982F0E9407089B01AC01C801EA
:10040000B7010E946C077B018C0189E294E066E5EC
:1004100071E00E94EE0340919F015091A001609114
:10042000A1017091A20189E294E02AE030E00E94EB
:10043000900489E294E06DE571E00E94EE0389E2A8
:1004400094E0B601A5012AE030E00E94900489E220
:1004500094E060E671E00E94EE0389E294E0A70177
:10046000B80122E030E00E94940589E294E066E65B
:1004700071E00E94FD04DF91CF911F910F91FF90D9
:10048000EF90DF90CF90BF90AF90089589E294E015
:1004900040E051EE60E070E00E94B2028FE060E068
:1004A0000E9474068DE061E00E94740682E060E0C4
:1004B0000E94740682E061E00E94C7060895982FAA
:1004C0008E3008F09E509770809186018295880F3B
:1004D000880F807C892B80937C0080917A008064D7
:1004E00080937A0080917A0086FDFCCF209178007D
:1004F00040917900942F80E030E0282B392BC901FE
:1005000008951F920F920FB60F9211242F933F93CD
:100510004F938F939F93EF93FF934091C600E09189
:100520002504F091260431969F012F773070319782
:1005300080912704909128042817390739F0EB554A
:10054000FC4F40833093260420932504FF91EF91C4
:100550009F918F914F913F912F910F900FBE0F90D0
:100560001F901895CF93DF93EC019A01AB01E885BA
:10057000F985203081EE380780E0480780E0580791
:1005800009F449C081E090E00A8802C0880F991FF1
:100590000A94E2F7808360E079E08DE390E00E94C6
:1005A0003C092150304040405040CA01B90122E08E
:1005B00030E040E050E00E943C09EC81FD81308356
:1005C000EE81FF812083EA85FB85208141E050E0B8
:1005D000CA010E8402C0880F991F0A94E2F7282BE3
:1005E0002083EA85FB852081CA010F8402C0880F21
:1005F000991F0A94E2F7282B2083EA85FB858081E6
:10060000088802C0440F551F0A94E2F7842B8083A8
:10061000DF91CF910895108220E130E0CECFDC0150
:100620001296ED91FC911397E058FF4F2191319173
:1006300080819181281B390B2F773070C901089573
:10064000DC011296ED91FC911397EE57FF4F20813C
:10065000318192918291E058F0408217930719F40A
:100660002FEF3FEF05C0E20FF31F8081282F30E00E
:10067000C9010895DC011296ED91FC911397DF01F9
:10068000AE57BF4F2D913C911197E058FF4F80819D
:100690009181E058F0408217930719F42FEF3FEF54
:1006A0000BC0E20FF31F80812F5F3F4F2F77307019
:1006B0002D933C93282F30E0C9010895DC01129658
:1006C000ED91FC911397EE57FF4F808191819293AA
:1006D00082930895FC01A085B18521898C9190E0D9
:1006E000022E02C0959587950A94E2F780FFF6CF17
:1006F0000484F585E02D608308958BE891E0909364
:100700002A048093290485EA93E090932C04809333
:100710002B0485EC90E090932E0480932D0484ECC0
:1007200090E09093300480932F0480EC90E09093BD
:1007300032048093310481EC90E0909334048093F0
:10074000330486EC90E0909336048093350484E083
:100750008093370483E08093380487E080933904E2
:1007600085E080933A0481E080933B0408950F93E1
:100770001F93CF93DF938C01EB0109C02196D80121
:10078000ED91FC910190F081E02DC80109956881FF
:100790006623A1F7DF91CF911F910F910895EF92FA
:1007A000FF920F931F93CF93DF938C017B01EA019C
:1007B0000CC0D7016D917D01D801ED91FC910190A4
:1007C000F081E02DC80109952197209791F7DF91DD
:1007D000CF911F910F91FF90EF900895DC01ED9163
:1007E000FC910280F381E02D099508952F923F92AC
:1007F0004F925F926F927F928F929F92AF92BF9231
:10080000CF92DF92EF92FF920F931F93DF93CF93DC
:10081000CDB7DEB7A0970FB6F894DEBF0FBECDBF41
:100820001C016A017B01411551056105710549F4FF
:1008300040E350E060E070E020E030E00E94B0046F
:1008400056C0882499245401422E552466247724C6
:1008500001E010E00C0F1D1F080D191DC701B601A6
:10086000A30192010E941A09F80160830894811C77
:10087000911CA11CB11CC701B601A30192010E94E9
:100880001A09C901DA016C017D01C114D104E10426
:10089000F104F1F681E0E82EF12CEC0EFD1EE80CDF
:1008A000F91C3E010894611C711CD501C40101971B
:1008B000A109B1096C01C818D90816C0F601EE0DDE
:1008C000FF1D40814A3010F4405D01C0495C55274E
:1008D00047FD5095652F752FC10120E030E00E9443
:1008E000B0040894E108F1086E147F0439F7A0966B
:1008F0000FB6F894DEBF0FBECDBFCF91DF911F9131
:100900000F91FF90EF90DF90CF90BF90AF909F90AE
:100910008F907F906F905F904F903F902F900895B1
:10092000DC012115310541F4ED91FC910190F0813C
:10093000E02D642F099508950E94F6030895EF9223
:10094000FF920F931F939A017B0100E010E0B80122
:10095000A7010E9490041F910F91FF90EF900895BE
:10096000EF92FF920F931F93CF93DF93EC017A01E5
:100970008B012115310541F4E881F9810190F08165
:10098000E02D642F09951BC02A303105B1F477FFA3
:1009900010C04DE250E060E070E020E030E00E94E6
:1009A000B00410950095F094E094E11CF11C011D39
:1009B000111DCE01B801A7012AE00E94F603DF91C4
:1009C000CF911F910F91FF90EF9008950F931F9378
:1009D0008C014DE050E060E070E020E030E00E94EB
:1009E000B004C8014AE050E060E070E020E030E090
:1009F0000E94B0041F910F9108950F931F938C01D3
:100A00000E94EE03C8010E94E6041F910F91089511
:100A10009F92AF92BF92CF92DF92EF92FF920F938D
:100A20001F93CF93DF93EC017A018B01922ECB01C0
:100A3000BA0120E030E040E050E00E9468078823DF
:100A40006CF4CE014DE250E060E070E020E030E078
:100A50000E94B00417FB109517F9109520E030E0C4
:100A600040E05FE3AA240BC0CA01B90120E030E0F6
:100A700040E251E40E946C079B01AC01A394A914CD
:100A800098F3C801B7010E9404075B016C010E9442
:100A9000D9077B018C01CE01B801A7012AE030E023
:100AA0000E949004992029F0CE016EE771E00E9427
:100AB000EE03C801B7010E9405089B01AC01C60105
:100AC000B5010E94030722C020E030E040E251E47B
:100AD0000E94B7087B018C010E94D4075B016C0166
:100AE000CC24B7FCC094DC2CCE01B601A5012AE0D1
:100AF00030E00E94B004C601B5010E9407089B01C6
:100B0000AC01C801B7010E9403079A949920E1F64D
:100B1000DF91CF911F910F91FF90EF90DF90CF90D9
:100B2000BF90AF909F9008950E94080508951F926E
:100B30000F920FB60F9211242F933F938F939F9391
:100B4000AF93BF938091400490914104A0914204DF
:100B5000B0914304309144040196A11DB11D232F8F
:100B60002D5F2D3720F02D570196A11DB11D20932B
:100B700044048093400490934104A0934204B093B2
:100B8000430480913C0490913D04A0913E04B091B7
:100B90003F040196A11DB11D80933C0490933D0438
:100BA000A0933E04B0933F04BF91AF919F918F916A
:100BB0003F912F910F900FBE0F901F9018958FB7F8
:100BC000F8942091400430914104409142045091A6
:100BD00043048FBFB901CA0108959FB7F8942091CB
:100BE0003C0430913D0440913E0450913F0486B551
:100BF000A89B06C08F3F21F02F5F3F4F4F4F5F4FA5
:100C00009FBF542F432F322F2227280F311D411D04
:100C1000511D82E0220F331F441F551F8A95D1F7C3
:100C2000B901CA010895EF92FF920F931F93CF93DA
:100C3000DF937B018C010E94ED05EB010EC00E9449
:100C4000ED056C1B7D0B685E7340C8F30894E108EA
:100C5000F10801091109C851DC4FE114F104010543
:100C6000110569F7DF91CF911F910F91FF90EF90E0
:100C70000895789484B5826084BD84B5816084BD14
:100C800085B5826085BD85B5816085BDEEE6F0E005
:100C9000808181608083E1E8F0E010828081826061
:100CA0008083808181608083E0E8F0E080818160E2
:100CB0008083E1EBF0E0808184608083E0EBF0E012
:100CC000808181608083EAE7F0E0808184608083B6
:100CD0008081826080838081816080838081806860
:100CE00080831092C1000895482F50E0CA018656B3
:100CF0009F4FFC0124914A575F4FFA01849188234A
:100D0000C1F0E82FF0E0EE0FFF1FE859FF4FA5916B
:100D1000B491662341F49FB7F8948C912095822377
:100D20008C939FBF08959FB7F8948C91822B8C93DE
:100D30009FBF0895833071F0843028F48130A1F092
:100D4000823021F514C08630B1F08730D1F0843084
:100D5000E9F404C0809180008F7703C08091800007
:100D60008F7D80938000089584B58F7702C084B50D
:100D70008F7D84BD08958091B0008F778093B000FF
:100D800008958091B0008F7D8093B0000895FF9208
:100D90000F931F93F62E482F50E0CA0182559F4FA4
:100DA000FC012491CA0186569F4FFC0114914A57B9
:100DB0005F4FFA0104910023D9F0222319F0822F0A
:100DC0000E949A06E02FF0E0EE0FFF1FEE58FF4F53
:100DD000A591B491FF2031F49FB7F8948C911095B0
:100DE000812304C09FB7F8948C91812B8C939FBF73
:100DF0001F910F91FF9008950E9439060E944602AC
:100E00000E948C00FDCF5058BB27AA270ED075C179
:100E100066D130F06BD120F031F49F3F11F41EF415
:100E20005BC10EF4E095E7FB51C1E92F77D180F368
:100E3000BA17620773078407950718F071F49EF5D7
:100E40008FC10EF4E0950B2EBA2FA02D0B01B90126
:100E500090010C01CA01A0011124FF27591B99F030
:100E6000593F50F4503E68F11A16F040A22F232F3C
:100E7000342F4427585FF3CF469537952795A7958C
:100E8000F0405395C9F77EF41F16BA0B620B730B33
:100E9000840BBAF09150A1F0FF0FBB1F661F771FA4
:100EA000881FC2F70EC0BA0F621F731F841F48F459
:100EB000879577956795B795F7959E3F08F0B3CFDF
:100EC0009395880F08F09927EE0F979587950895C9
:100ED000D9D008F481E008950CD00FC107D140F0BB
:100EE000FED030F021F45F3F19F0F0C0511139C14C
:100EF000F3C014D198F39923C9F35523B1F3951B8B
:100F0000550BBB27AA2762177307840738F09F5F2A
:100F10005F4F220F331F441FAA1FA9F333D00E2E99
:100F20003AF0E0E830D091505040E695001CCAF706
:100F300029D0FE2F27D0660F771F881FBB1F2617CB
:100F400037074807AB07B0E809F0BB0B802DBF019E
:100F5000FF2793585F4F2AF09E3F510568F0B6C0B7
:100F600000C15F3FECF3983EDCF38695779567957B
:100F7000B795F7959F5FC9F7880F911D969587954F
:100F800097F90895E1E0660F771F881FBB1F62176E
:100F900073078407BA0720F0621B730B840BBA0B2C
:100FA000EE1F88F7E095089504D06894B111D9C078
:100FB0000895BCD088F09F5790F0B92F9927B7516A
:100FC000A0F0D1F0660F771F881F991F1AF0BA950D
:100FD000C9F712C0B13081F0C3D0B1E00895C0C0EC
:100FE000672F782F8827B85F39F0B93FCCF3869503
:100FF00077956795B395D9F73EF490958095709560
:1010000061957F4F8F4F9F4F0895E89409C097FBDC
:101010003EF490958095709561957F4F8F4F9F4FCF
:101020009923A9F0F92F96E9BB279395F695879513
:1010300077956795B795F111F8CFFAF4BB0F11F4D6
:1010400060FF1BC06F5F7F4F8F4F9F4F16C088237D
:1010500011F096E911C0772321F09EE8872F762FB3
:1010600005C0662371F096E8862F70E060E02AF0F4
:101070009A95660F771F881FDAF7880F96958795E0
:1010800097F90895990F0008550FAA0BE0E8FEEFB5
:1010900016161706E807F907C0F012161306E4073C
:1010A000F50798F0621B730B840B950B39F40A2635
:1010B00061F0232B242B252B21F408950A2609F413
:1010C000A140A6958FEF811D811D089597F99F6717
:1010D00080E870E060E008959FEF80EC08950024C0
:1010E0000A941616170618060906089500240A948D
:1010F00012161306140605060895092E0394000C13
:1011000011F4882352F0BB0F40F4BF2B11F460FFA1
:1011100004C06F5F7F4F8F4F9F4F089557FD9058CA
:10112000440F551F59F05F3F71F04795880F97FBAB
:10113000991F61F09F3F79F0879508951216130665
:101140001406551FF2CF4695F1DF08C01616170694
:101150001806991FF1CF86957105610508940895C9
:10116000E894BB2766277727CB0197F908950BD022
:10117000C4CFB5DF28F0BADF18F0952309F0A6CF69
:10118000ABCF1124EECFCADFA0F3959FD1F3950F1B
:1011900050E0551F629FF001729FBB27F00DB11DFB
:1011A000639FAA27F00DB11DAA1F649F6627B00D8B
:1011B000A11D661F829F2227B00DA11D621F739F74
:1011C000B00DA11D621F839FA00D611D221F749F82
:1011D0003327A00D611D231F849F600D211D822FC9
:1011E000762F6A2F11249F5750408AF0E1F0882310
:1011F0004AF0EE0FFF1FBB1F661F771F881F91501D
:101200005040A9F79E3F510570F060CFAACF5F3FD5
:10121000ECF3983EDCF3869577956795B795F7954F
:10122000E7959F5FC1F7FE2B880F911D96958795D7
:1012300097F90895A1E21A2EAA1BBB1BFD010DC050
:10124000AA1FBB1FEE1FFF1FA217B307E407F50776
:1012500020F0A21BB30BE40BF50B661F771F881F52
:10126000991F1A9469F760957095809590959B01E8
:10127000AC01BD01CF01089597FB092E05260ED0C4
:1012800057FD04D0D7DF0AD0001C38F450954095A4
:10129000309521953F4F4F4F5F4F0895F6F790954A
:1012A0008095709561957F4F8F4F9F4F0895EE0FFA
:0E12B000FF1F0590F491E02D0994F894FFCFF4
:1012BE00536176696E672073657474696E67730027
:1012CE00446F6E6520617665726167696E67004D69
:1012DE0061726B65723A2000206D732028002072B7
:1012EE00656164696E677329004469736361726432
:1012FE00696E6720696E636F6D706C6574652063CF
:10130E0079636C652E004379636C6520003A20008A
:10131E00206D732C20002057004465626F756E633C
:10132E00652074696D6520286D73293A20002E00A2
:10133E006500FF00640001000000006A03B703CFE0
:0A134E00030F033A0320035E0300BF
:00000001FF
